:020000040800F2
:1000000000500020C9120008ED100008F51000088B
:10001000FD100008051100080D1100080000000087
:100020000000000000000000000000005154000823
:1000300015110008000000003156000821110008C9
:100040001113000811130008111300081113000800
:1000500011130008111300081113000811130008F0
:1000600011130008111300081113000811130008E0
:1000700011130008111300081113000811130008D0
:1000800011130008111300081113000811130008C0
:1000900011130008111300081113000811130008B0
:1000A00011130008111300081113000811130008A0
:1000B0001113000811130008111300081113000890
:1000C0001113000811130008111300081113000880
:1000D0001113000811130008111300081113000870
:1000E0003D0D000811130008111300080000000066
:1000F0000000000000000000000000000000000000
:0C01000000000000000000005FF808F1A3
:1001100010B5054C237833B9044B13B10448AFF341
:1001200000800123237010BDC000002000000000EB
:10013000306F000808B5034B1BB103490348AFF308
:10014000008008BD00000000C4000020306F0008DF
:1001500080B582B000AF0346FB80FB88184601F0F3
:100160003BF900BF0837BD4680BD80B586B002AF01
:1001700078600B46FB701346BB70FB7823F00F03CF
:10018000FB73FB781B01BB737B68DB7A002B07D00A
:10019000FB7B43F00803FB73BB7B43F00803BB739B
:1001A000BB78012B08D1FB7B43F00103FB73BB7BC6
:1001B00043F00103BB730AE0BB78002B07D1FB7B44
:1001C00023F00103FB73BB7B23F00103BB73FB7BB9
:1001D00043F00403DBB23B720120FFF7B9FFFB7B66
:1001E0007B72BB7B43F00403DBB2BB720120FFF7E1
:1001F000AFFFBB7BFB727B6818687B681B79194675
:1002000007F108024FF47A730093042301F028FDEC
:1002100000BF1037BD4680BD80B584B000AFF86028
:10022000B96011461A460B46FB711346BB71FB6859
:10023000BA681A60FB68FA791A71FB68BA795A7160
:10024000FB683A7E9A71FB6828229A72FB68062244
:10025000DA71FB680C221A72FB6814225A72FB686E
:100260000822DA723220FFF773FF00223321F86888
:10027000FFF77BFF00223321F868FFF776FF0520A8
:10028000FFF766FF00223221F868FFF76EFF0520B6
:10029000FFF75EFF00222021F868FFF766FF0520C8
:1002A000FFF756FFFB68DB7900221946F868FFF775
:1002B0005CFFFB681B7A00221946F868FFF755FFC0
:1002C000FB685B7A00221946F868FFF74EFFFB686F
:1002D0009B7A00221946F868FFF747FF00220121A8
:1002E000F868FFF742FF00220221F868FFF73DFFA0
:1002F00000BF1037BD4680BD80B584B000AF7860C8
:100300000B46FB701346BB700023FB737B685B7965
:10031000FA789A4203D37B685B79013BFB707B6878
:100320009B79BA789A4203D37B689B79013BBB7077
:10033000BB78002B02D1FB78FB7313E0BB78012B59
:1003400003D1FB784033FB730CE0BB78022B03D165
:10035000FB781433FB7305E0BB78032B02D1FB78E9
:100360005433FB73FB7B63F07F03DBB2002219463F
:100370007868FFF7FAFE00BF1037BD4680BD80B534
:1003800082B000AF78600B46FB70FB780122194603
:100390007868FFF7EAFE00BF0837BD4680BD80B52C
:1003A00082B000AF7860396007E03B685A1C3A6061
:1003B0001B7819467868FFF7E2FF3B681B78002B33
:1003C000F3D100BF00BF0837BD4680BD80B582B005
:1003D00000AF7860002201217868FFF7C6FE052093
:1003E000FFF7B6FE00BF0837BD4680BD80B586B0BA
:1003F00000AFF8600B467A60FB72FB7A03F00703EC
:10040000FB72FB7ADB005BB243F040035BB2DBB212
:1004100000221946F868FFF7A8FE00237B610EE072
:100420007B697A6813441B7801221946F868FFF744
:100430009CFE0220FFF78CFE7B6901337B617B69A8
:10044000072BEDDD00228021F868FFF78EFE0220E9
:10045000FFF77EFE00BF1837BD4680BD80B483B075
:1004600000AF78607B68012B01D102230AE07B6832
:10047000082B01D1002305E07B68402B01D101232B
:1004800000E0FF2318460C37BD4680BC704780B49F
:1004900083B000AF0346FB71FB79002B01D1012330
:1004A0000AE0FB79012B01D1022305E0FB79022B45
:1004B00001D1002300E0032318460C37BD4680BC61
:1004C000704780B483B000AF03460A46FB71134601
:1004D000BB71FA79BB799A4201D1002315E0FB790F
:1004E000002B02D1BB79022B0BD0FB79012B02D15F
:1004F000BB79002B05D0FB79022B04D1BB79012BF2
:1005000001D1012301E04FF0FF3318460C37BD46FF
:1005100080BC704780B483B000AF78607B68092BE3
:1005200002D940F2DC5307E07B686FF0F90202FB6E
:1005300003F303F584531A3318460C37BD4680BCC9
:100540007047000080B483B000AF00237B600CE0F4
:100550000A4A7B681344FF221A70094A7B681344D5
:10056000FF221A707B6801337B607B68092BEFDD0B
:1005700000BF00BF0C37BD4680BC70475001002053
:100580005C01002090B587B002AF78602C4A7B6890
:1005900013602B4B00225A60294B00229A60284B93
:1005A0000022DA60264B00221A61254B00225A6194
:1005B000234B01221A76FFF7C5FF224B1B6800214F
:1005C000184602F07FFC204B1B680021184602F001
:1005D00079FC0023FB6009E01B4B18680023002214
:1005E000002102F097FDFB680133FB60FB68092BDB
:1005F000F2DD164B1C68124B1B681846FFF78AFF8A
:1006000003464FF47A7202FB03F3114AA2FB032361
:100610009A090023009300230421204604F0D4FB10
:100620000A4B1C6803F0BAFC024600230093002327
:100630000121204604F0C8FB00BF1437BD4690BD21
:1006400000000020780100208401002074010020B7
:10065000D34D621080B582B002AF00F05BFE00F0B7
:10066000D9FB00F041FC00F011FC642303224E2171
:10067000444800F087FB0223009310234E22414997
:100680004148FFF7C9FD4048FFF7A0FE00220021C6
:100690003D48FFF731FE3D493B48FFF780FE012210
:1006A00000213948FFF728FE39493748FFF777FE20
:1006B0004FF47A7000F090FE012002F0DDFC03465A
:1006C000344A136003220021012002F065FC034636
:1006D000314A136000210A2002F0E6FC03462F4A4B
:1006E0001360002204210A2002F056FC03462C4A23
:1006F00013602C4B0093002300224FF47A612A48A8
:1007000004F004FB0346294A1360294B019302239A
:10071000009300234FF480722649274803F010FA13
:10072000264B01930323009300234FF48072244946
:10073000244803F005FA244B01930223009300237D
:100740004FF480722149224803F0FAF9124B1868DD
:1007500000230022002102F0DDFC03F025FB0A4803
:10076000FFF734FE002200210748FFF7C5FD1949B5
:100770000548FFF714FE4FF4FA7000F02DFE00BF9D
:10078000EDE700BFDC00002030010020486F0008CA
:10079000506F00087C0100208001002084010020AF
:1007A00078010020D90700085C6F00087401002060
:1007B00070010020686F00081D0A00086801002011
:1007C000746F0008E90900086C010020806F0008C0
:1007D000050800088C6F000880B584B000AF786011
:1007E0004FF0FF33FB60064B186807F10C01002344
:1007F000002202F08FFC00BF1037BD4680BD00BF55
:100800007801002090B58BB002AF786000F0DAFD7F
:100810000346184605F0A0F96A4B1B6807F10C0166
:100820004FF0FF32184602F015FE674B1B684FF081
:10083000FF31184602F0F0FE644B1B7E012B1CD0EA
:10084000624B1B68FB61614B1B7E022B03D15F4B2C
:100850001B680133FB61F869FFF794FE5A4B186877
:1008600000230022002102F055FC594B1868002398
:100870000022002102F04EFCA2E0564B1B68002132
:10088000184602F0C9FE0346002B07D14E4B1868EC
:1008900000230022002102F03DFC91E005F08AF9DE
:1008A00001464D4B83FB0132CB17D21A13465B0036
:1008B0001344CA1ABA61454B5B68BA69D1B2474A58
:1008C000D154FB68B3F1FF3F06D0FB681846FFF731
:1008D000C5FD0346FF2B0FD13C4B5B68404AFF210F
:1008E000D1543A4B5B690133384A5361374BDB686B
:1008F0000133364AD36029E0FB681846FFF7AEFDA6
:100900000346FB75314B5B683549FA7DCA54BB69B8
:10091000DAB2FB7D11461846FFF7D3FD38613B691B
:10092000002B05DD294B9B680133284A93600DE0BD
:100930003B69002B05DA254BDB680133234AD36082
:1009400004E0224B1B690133204A13611F4B5B6893
:1009500001331E4A53601D4B5B68092B16D9214B8E
:1009600018680023009300230022032104F02CFACE
:10097000164B9A68154BDB689A4203D3134B02223D
:100980001A760FE0114B03221A760BE0154B1C6808
:1009900003F004FB024600230093002302212046BB
:1009A00004F012FA084B186800230022002102F01C
:1009B000B1FB074B186800230022002102F0AAFBBC
:1009C0002AE700BF780100207C0100200000002001
:1009D000800100208401002056555555500100200B
:1009E0005C0100207401002080B584B000AF786005
:1009F00007F10C024FF0FF334FF0FF31002003F0FE
:100A0000B5FF054B186807F10C0100234FF0FF32CA
:100A100002F080FB00BFEBE778010020B0B594B096
:100A200002AF7860854A01218548FFF7DFFC854ADF
:100A300002218348FFF7DAFC834A00218048FFF750
:100A4000D5FC824A03217E48FFF7D0FC804A04216E
:100A50007B48FFF7CBFC7F4A05217948FFF7C6FCAE
:100A60007D4A06217648FFF7C1FC7C4A072174487D
:100A7000FFF7BCFC7A4B1B684FF0FF31184602F0C1
:100A8000CBFD784B1B684FF0FF31184602F0C4FDD8
:100A9000754B07F120041D460FCD0FC495E80700E4
:100AA00084E8070000237B6416E0704A7B6C1344E3
:100AB000197807F114027B6C13440A461A706C4AC9
:100AC0007B6C1344197807F108027B6C13440A46C7
:100AD0001A707B6C01337B647B6C092BE5DD614B09
:100AE000186800230022002102F014FB5448FFF78D
:100AF0006DFC97F83830002B12D1002200215048AD
:100B0000FFF7FAFB5B494E48FFF749FC0122002141
:100B10004B48FFF7F1FB58494948FFF740FCA9E76C
:100B200097F83830012B5ED1002200214448FFF7AE
:100B3000E3FB52494248FFF732FC00233B6415E0D7
:100B40007A6A3B6C9A4209D907F114023B6C134450
:100B50001B781846FFF79BFC034600E00323194669
:100B60003748FFF70CFC3B6C01333B643B6C092BB3
:100B7000E6DD3B6A1A464249424805F01BF9414905
:100B80002F48FFF70CFC012200212D48FFF7B4FB92
:100B90003D492B48FFF703FC0023FB6315E07A6A0D
:100BA000FB6B9A4209D907F10802FB6B13441B78CF
:100BB0001846FFF76CFC034600E004231946204862
:100BC000FFF7DDFBFB6B0133FB63FB6B092BE6DD02
:100BD000BB6A1A462D492B4805F0ECF829491848FC
:100BE000FFF7DDFB46E7002200211548FFF784FBF5
:100BF00097F83830022B04D125491148FFF7CFFB75
:100C000003E024490E48FFF7CAFB012200210C48EB
:100C1000FFF772FBBB6A1946FB6A18463B6B7A6B9F
:100C20000192009303460A461B49164805F0C2F894
:100C300014490348FFF7B3FB1CE700BF2400002062
:100C4000300100202C0000201C0000203400002077
:100C50008C0100203C000020440000204C000020BB
:100C6000800100207C0100200000002050010020B5
:100C70005C0100209C6F0008AC6F0008BC6F00088E
:100C8000C06F00083C010020C86F0008CC6F00084E
:100C9000D46F0008E46F0008F46F000880B588B0D6
:100CA00002AF0346FB800023FB6003F085F9386147
:100CB0001F4B1B683A69D31A962B34D91C4A3B69DF
:100CC000136000237B61FB88B3F5804F02D10123C1
:100CD0007B610CE0FB88B3F5806F02D108237B6158
:100CE00005E0FB88B3F5004F01D140237B617B69B0
:100CF000002B0DD00F4B1B68002B09D00D4B186833
:100D000007F10C03009300230322796903F088FEA6
:100D1000FB68002B07D0084B4FF080521A60BFF3DE
:100D20004F8FBFF36F8F00BF1837BD4680BD00BF28
:100D3000880100206801002004ED00E080B500AFCC
:100D40000F4B5B6903F48063002B03D04FF480608A
:100D500000F02AFE0A4B5B6903F48043002B03D0AA
:100D60004FF4804000F020FE054B5B6903F4004324
:100D7000002B03D04FF4004000F016FE00BF80BDF2
:100D80000004014080B586B000AFF8607A603B6037
:100D90000B46FB7201224FF400511D4800F0D2FDBA
:100DA000FB7A99B27A683B68F86801F057F8034615
:100DB000002B11D100237B610AE04FF4005114484D
:100DC00000F0D8FD322000F007FB7B6901337B6126
:100DD0007B69132BF1DD11E000233B610BE04FF445
:100DE00000510B4800F0C6FD4FF4FA7000F0F4FA21
:100DF0003B6901333B613B69052BF0DD01224FF478
:100E00000051034800F09EFD00BF1837BD4680BD6D
:100E10000010014080B590B000AF07F11803282200
:100E20000021184605F029F83B1D00221A605A607F
:100E30009A60DA601A610223BB610123BB6210234E
:100E4000FB6200237B6307F11803184601F08EFB59
:100E50000346002B01D000F0BBF80F237B6000237A
:100E6000BB600023FB6000233B6100237B613B1DD3
:100E70000021184601F0FCFD0346002B01D000F0D4
:100E8000A7F800BF4037BD4680BD000080B500AF69
:100E9000124B134A1A60114B124A5A600F4B002230
:100EA0009A600E4B0022DA600C4B4FF480421A61BC
:100EB0000A4B00225A61094B00229A61074B00221B
:100EC000DA61064B00221A62044800F085FD0346F1
:100ED000002B01D000F07CF800BF80BDDC000020BA
:100EE00000540040A086010080B588B000AF07F133
:100EF000100300221A605A609A60DA602F4B9B69D7
:100F00002E4A43F0080393612C4B9B6903F00803BE
:100F1000FB60FB68294B9B69284A43F004039361FB
:100F2000264B9B6903F00403BB60BB68234B9B69A2
:100F3000224A43F010039361204B9B6903F0100396
:100F40007B607B6800224FF400511D4800F0FAFCE2
:100F50004FF400533B6101237B610023BB610223FB
:100F6000FB6107F110031946154800F067FB4FF4C9
:100F700004433B61134B7B610123BB6107F1100309
:100F80001946114800F05AFB4FF480433B610D4B6A
:100F90007B610123BB6107F1100319460B4800F088
:100FA0004DFB00220521282000F011FB282000F035
:100FB0002AFB00BF2037BD4680BD00BF00100240A5
:100FC000001001400000211000080140000C014009
:100FD00080B400AF72B600BF00BFFDE780B584B03B
:100FE00000AF184B9B69174A43F001039361154BFF
:100FF0009B6903F00103BB60BB68124BDB69114ABC
:1010000043F08053D3610F4BDB6903F080537B6067
:101010007B6800220F216FF0010000F0D8FA0A4B24
:101020005B68FB60FB6823F0E063FB60FB6843F0F8
:101030000073FB60044AFB68536000BF1037BD4675
:1010400080BD00BF001002400000014080B58AB0A2
:1010500000AF786007F1140300221A605A609A60AA
:10106000DA607B681B681D4A934232D11C4B9B6936
:101070001B4A43F008039361194B9B6903F0080373
:101080003B613B694FF440737B611223BB610323D7
:101090003B6207F114031946124800F0CFFA124BD5
:1010A0005B687B627B6A43F0E0637B627B6A43F050
:1010B00002037B620C4A7B6A5360094BDB69084A76
:1010C00043F40013D361064BDB6903F40013FB60A8
:1010D000FB6800BF2837BD4680BD00BF00540040FC
:1010E00000100240000C01400000014080B400AF3D
:1010F00000BFFDE780B400AF00BFFDE780B400AFE4
:1011000000BFFDE780B400AF00BFFDE780B400AFD3
:1011100000BFFDE780B400AF00BFBD4680BC704794
:1011200080B500AF00F03CF903F060FA0346012BF4
:1011300001D004F0A1FA00BF80BD80B400AF01234C
:101140001846BD4680BC704780B582B000AF78605D
:10115000396004F0E1FE034616221A604FF0FF33B7
:1011600018460837BD4680BD80B582B000AF7860B4
:101170004FF0FF317868FFF7E7FF00BFFDE780B56C
:1011800086B000AFF860B9607A6000237B610AE046
:10119000AFF300800146BB685A1CBA60CAB21A702D
:1011A0007B6901337B617A697B689A42F0DB7B68FB
:1011B00018461837BD4680BD80B586B000AFF860D0
:1011C000B9607A6000237B6109E0BB685A1CBA6091
:1011D0001B781846AFF300807B6901337B617A6925
:1011E0007B689A42F1DB7B6818461837BD4680BDA4
:1011F00080B483B000AF78604FF0FF3318460C37EF
:10120000BD4680BC704780B483B000AF7860396061
:101210003B684FF400525A60002318460C37BD4615
:1012200080BC704780B483B000AF7860012318465B
:101230000C37BD4680BC704780B485B000AFF86005
:10124000B9607A60002318461437BD4680BC7047E9
:1012500080B586B000AF7860144A154BD31A7B6115
:101260007B693B61134B1B68002B02D1114B124A67
:101270001A60104B1A687B6813443A699A4207D285
:1012800004F04AFE03460C221A604FF0FF3309E0D7
:10129000084B1B68FB60074B1A687B681344054AC0
:1012A0001360FB6818461837BD4680BD005000200B
:1012B0000004000094010020B82C002080B400AF8E
:1012C00000BFBD4680BC7047FFF7F8FF0B480C49D4
:1012D0000C4A002302E0D458C4500433C4188C4292
:1012E000F9D3094A094C002301E013600432A242F9
:1012F000FBD304F017FEFFF7ADF9704700000020A4
:10130000C00000202C710008C0000020B82C002074
:10131000FEE7000080B500AF084B1B68074A43F0AA
:1013200010031360032000F047F90F2000F008F8C5
:10133000FFF754FE0023184680BD00BF0020024086
:1013400080B582B000AF7860124B1A68124B1B78E0
:1013500019464FF47A73B3FBF1F3B2FBF3F318467B
:1013600000F05FF90346002B01D001230EE07B68FB
:101370000F2B0AD8002279684FF0FF3000F027F9D0
:10138000064A7B681360002300E0012318460837F3
:10139000BD4680BD540000205C00002058000020A5
:1013A00080B400AF054B1B781A46054B1B681344ED
:1013B000034A136000BFBD4680BC70475C0000203C
:1013C0009801002080B400AF024B1B681846BD4650
:1013D00080BC70479801002080B584B000AF786071
:1013E000FFF7F0FFB8607B68FB60FB68B3F1FF3F7D
:1013F00005D00A4B1B781A46FB681344FB6000BFFC
:10140000FFF7E0FF0246BB68D31AFA689A42F7D8A2
:1014100000BF00BF1037BD4680BD00BF5C0000208C
:1014200080B485B000AF78607B6803F00703FB6091
:101430000C4BDB68BB60BA684FF6FF031340BB6020
:10144000FB681A02BB68134343F0BF6343F40033E5
:10145000BB60044ABB68D36000BF1437BD4680BC84
:10146000704700BF00ED00E080B400AF044BDB68C4
:101470001B0A03F007031846BD4680BC704700BF37
:1014800000ED00E080B483B000AF0346FB7197F934
:101490000730002B0BDBFB7903F01F02064997F99D
:1014A00007305B09012000FA02F241F8232000BF57
:1014B0000C37BD4680BC704700E100E080B483B0CB
:1014C00000AF03463960FB7197F90730002B0ADB48
:1014D0003B68DAB20C4997F907301201D2B20B44DB
:1014E00083F800230AE03B68DAB20849FB7903F08D
:1014F0000F03043B1201D2B20B441A7600BF0C3723
:10150000BD4680BC704700BF00E100E000ED00E098
:1015100080B489B000AFF860B9607A60FB6803F00E
:101520000703FB61FB69C3F10703042B28BF0423F6
:10153000BB61FB690433062B02D9FB69033B00E066
:1015400000237B614FF0FF32BB6902FA03F3DA43F9
:10155000BB681A407B699A404FF0FF317B6901FA02
:1015600003F3D9437B680B40134318462437BD4629
:1015700080BC704780B582B000AF78607B68013B6B
:10158000B3F1807F01D301230FE00A4A7B68013B5E
:1015900053600F214FF0FF30FFF790FF054B002203
:1015A0009A60044B07221A60002318460837BD468C
:1015B00080BD00BF10E000E080B582B000AF786071
:1015C0007868FFF72DFF00BF0837BD4680BD80B5A6
:1015D00086B000AF0346B9607A60FB7300237B617D
:1015E000FFF742FF78617A68B9687869FFF790FF82
:1015F000024697F90F3011461846FFF75FFF00BF0C
:101600001837BD4680BD80B582B000AF0346FB7180
:1016100097F907301846FFF735FF00BF0837BD467A
:1016200080BD80B582B000AF78607868FFF7A2FF18
:10163000034618460837BD4680BD000080B48BB015
:1016400000AF7860396000237B6200233B6269E170
:1016500001227B6A02FA03F3FB613B681B68FA69AB
:101660001340BB61BA69FB699A4240F058813B68FC
:101670005B689A4A93425ED0984A934275D8984ADA
:10168000934258D0964A93426FD8964A934252D08A
:10169000944A934269D8944A93424CD0924A9342D6
:1016A00063D8924A934246D0904A93425DD8122B17
:1016B0002AD8122B59D801A252F823F03717000864
:1016C0001117000823170008651700086B1700089A
:1016D0006B1700086B1700086B1700086B170008E2
:1016E0006B1700086B1700086B1700086B170008D2
:1016F0006B1700086B1700086B1700086B170008C2
:10170000191700082D170008794A934213D02CE0CE
:101710003B68DB683B6229E03B68DB6804333B6283
:1017200024E03B68DB6808333B621FE03B68DB6812
:101730000C333B621AE03B689B68002B02D1042308
:101740003B6213E03B689B68012B05D108233B6299
:101750007B68FA691A6109E008233B627B68FA69D1
:101760005A6103E000233B6200E000BFBB69FF2B2E
:1017700001D87B6801E07B6804337B61BB69FF2B88
:1017800002D87B6A9B0002E07B6A083B9B003B61BE
:101790007B691A680F213B6901FA03F3DB431A40A6
:1017A000396A3B6901FA03F31A437B691A603B68A3
:1017B0005B6803F08053002B00F0B1804D4B9B69B8
:1017C0004C4A43F0010393614A4B9B6903F00103C8
:1017D000BB60BB68484A7B6A9B08023352F82330DF
:1017E000FB607B6A03F003039B000F2202FA03F302
:1017F000DB43FA681340FB607B68404A934213D096
:101800007B683F4A93420DD07B683E4A934207D0A3
:101810007B683D4A934201D1032306E0042304E0A0
:10182000022302E0012300E000237A6A02F00302AF
:1018300092009340FA681343FB602F497B6A9B0830
:101840000233FA6841F823203B685B6803F4801395
:10185000002B06D02D4B9A682C49BB6913438B6033
:1018600006E02A4B9A68BB69DB43284913408B602A
:101870003B685B6803F40013002B06D0234BDA6847
:101880002249BB691343CB6006E0204BDA68BB6991
:10189000DB431E491340CB603B685B6803F40033B5
:1018A000002B06D0194B5A681849BB6913434B608B
:1018B00006E0164B5A68BB69DB43144913404B6082
:1018C0003B685B6803F48033002B21D00F4B1A6810
:1018D0000E49BB6913430B6021E000BF00003210CA
:1018E0000000311000002210000021100000121032
:1018F00000001110001002400000014000080140EB
:10190000000C01400010014000140140000401409F
:101910000B4B1A68BB69DB43094913400B607B6AB8
:1019200001337B623B681A687B6A22FA03F3002B5F
:101930007FF48EAE00BF00BF2C37BD4680BC704721
:101940000004014080B483B000AF78600B467B8018
:1019500013467B707B78002B03D07A887B681A61F2
:1019600003E07B881A047B681A6100BF0C37BD4610
:1019700080BC704780B485B000AF78600B467B8038
:101980007B68DB68FB607A88FB6813401A04FB689D
:10199000D9437B880B401A437B681A6100BF143718
:1019A000BD4680BC7047000080B582B000AF0346E2
:1019B000FB80084B5A69FB881340002B06D0054A70
:1019C000FB885361FB881846FFF768F900BF0837AA
:1019D000BD4680BD0004014080B584B000AF786092
:1019E0007B68002B01D101232BE17B6893F83D300C
:1019F000DBB2002B06D17B68002283F83C2078689C
:101A0000FFF724FB7B68242283F83D207B681B685A
:101A10001A687B681B6822F001021A607B681B68E9
:101A20001A687B681B6842F400421A607B681B6876
:101A30001A687B681B6822F400421A6001F060F9A2
:101A4000F8607B685B68814A934207D8FB68804AEC
:101A5000934294BF01230023DBB206E0FB687D4A7A
:101A6000934294BF01230023DBB2002B01D001235A
:101A7000E7E0FB68784AA2FB03239B0CBB607B6812
:101A80001B685B6823F03F017B681B68BA680A43E8
:101A90005A607B681B681B6A23F03F017B685B68A8
:101AA0006A4A934202D8BB68013309E0BB684FF42D
:101AB000967202FB03F3694AA2FB03239B090133DD
:101AC0007A6812680B4313627B681B68DB6923F436
:101AD0004F4222F0FF027B685B685C498B4219D859
:101AE000FB68591E7B685B685B00B1FBF3F3591C14
:101AF00040F6FC730B40002B0AD0FB68591E7B6834
:101B00005B685B00B1FBF3F30133C3F30B0351E0FC
:101B100004234FE07B689B68002B11D1FB68581EA3
:101B20007B6859680B465B000B44B0FBF3F3013351
:101B3000C3F30B03002B0CBF01230023DBB212E025
:101B4000FB68581E7B6859680B469B000B44990044
:101B50000B44B0FBF3F30133C3F30B03002B0CBFB7
:101B600001230023DBB2002B01D0012322E07B689C
:101B70009B68002B0ED1FB68581E7B6859680B468A
:101B80005B000B44B0FBF3F30133C3F30B0343F4EB
:101B900000430FE0FB68581E7B6859680B469B00AA
:101BA0000B4499000B44B0FBF3F30133C3F30B0375
:101BB00043F44043796809681343CB617B681B6831
:101BC0001B6823F0C0017B68DA697B681B6A1A43D3
:101BD0007B681B680A431A607B681B689B6823F458
:101BE000034323F0FF037A6811697A68D2681143CE
:101BF0007A6812680B4393607B681B68DB6823F08C
:101C0000FF017B685A697B689B691A437B681B6884
:101C10000A43DA607B681B681A687B681B6842F0BD
:101C200001021A607B6800221A647B68202283F814
:101C30003D207B6800221A637B68002283F83E20E7
:101C4000002318461037BD4680BD00BFA0860100A6
:101C50007F841E00FF083D0083DE1B43D34D6210CE
:101C600080B588B002AFF8607A601A460B467B8177
:101C700013463B81FFF7A6FB7861FB6893F83D3084
:101C8000DBB2202B40F0E0807B6900931923012216
:101C90007049F86800F092FA0346002B01D0022345
:101CA000D3E0FB6893F83C30012B01D10223CCE058
:101CB000FB68012283F83C20FB681B681B6803F06B
:101CC0000103012B07D0FB681B681A68FB681B68BF
:101CD00042F001021A60FB681B681A68FB681B6807
:101CE00022F400621A60FB68212283F83D20FB6821
:101CF000102283F83E20FB6800221A64FB687A6891
:101D00005A62FB683A895A85FB685B8D9AB2FB6818
:101D10001A85FB68504ADA6279897B693A6AF86801
:101D200000F0CAF90346002B01D001238DE0002307
:101D30003B61FB681B685B693B61FB681B689B69D7
:101D40003B613B6966E07A69396AF86800F050FBEC
:101D50000346002B0DD0FB681B6C042B07D1FB68DE
:101D60001B681A68FB681B6842F400721A60012342
:101D70006BE0FB685B6A1A78FB681B681A61FB689A
:101D80005B6A5A1CFB685A62FB685B8D9BB2013B25
:101D90009AB2FB685A85FB681B8D013B9AB2FB68BF
:101DA0001A85FB681B685B6903F00403042B1BD1D5
:101DB000FB681B8D002B17D0FB685B6A1A78FB68E9
:101DC0001B681A61FB685B6A5A1CFB685A62FB68F5
:101DD0005B8D9BB2013B9AB2FB685A85FB681B8DF9
:101DE000013B9AB2FB681A857A69396AF86800F093
:101DF00047FB0346002B0DD0FB681B6C042B07D15F
:101E0000FB681B681A68FB681B6842F400721A6062
:101E100001231AE0FB681B8D002B94D1FB681B6823
:101E20001A68FB681B6842F400721A60FB68202283
:101E300083F83D20FB68002283F83E20FB680022E7
:101E400083F83C20002300E0022318461837BD46E3
:101E500080BD00BF020010000000FFFF80B58AB007
:101E600002AFF8607A603B600B467B81FFF7AAFA0D
:101E7000F8610023BB61FB6893F83D30DBB2202B97
:101E800040F01181FB690093192301228849F86809
:101E900000F094F90346002B01D0022304E1FB6813
:101EA00093F83C30012B01D10223FDE0FB680122B5
:101EB00083F83C20FB681B681B6803F00103012BBF
:101EC00007D0FB681B681A68FB681B6842F00102B8
:101ED0001A60FB681B681A68FB681B6822F40062C2
:101EE0001A60FB68242283F83D20FB6800221A64F4
:101EF000FB68704ADA62FB681B681A68FB681B683B
:101F000042F480721A60FB6900933B6800224FF034
:101F10000111F86800F052F90346002B0DD0FB6860
:101F20001B681B6803F48073B3F5807F03D1FB68E3
:101F30004FF400721A640323B6E07B89DBB21A46C1
:101F4000FB681B6802F0FE021A61FFF73BFAF861BA
:101F5000FB681B685B6903F00203022B0CBF0123C3
:101F60000023DBB2FB75FB681B685B6903F48063CD
:101F7000B3F5806F0CBF01230023DBB2BB7525E0F6
:101F8000FFF720FA0246FB69D31A3A689A4202D355
:101F90003B68002B03D1FB68A02283F83D20FB683F
:101FA0001B685B6903F00203022B0CBF01230023B3
:101FB000DBB2FB75FB681B685B6903F48063B3F5F8
:101FC000806F0CBF01230023DBB2BB75FB6893F865
:101FD0003D30DBB2A02B05D0FB7D002B02D1BB7DB9
:101FE000002BCDD0FB68202283F83D20FB681B68C6
:101FF0005B6903F00203022B29D1FB681B681A6896
:10200000FB681B6842F400721A6000233B61FB68A6
:102010001B685B693B61FB681B689B693B613B69B3
:10202000FB690093192301222149F86800F0C6F8E2
:102030000346002B01D0012336E0FB68202283F801
:102040003D20FB68002283F83C2000232CE0FB6845
:102050001B681A68FB681B6842F400721A60FB6810
:102060001B686FF480625A61FB6900931923012297
:102070000F49F86800F0A2F80346002B01D00123B5
:1020800012E0BB690133BB61BA697B689A42FFF415
:1020900032AFFB68202283F83D20FB68002283F8E2
:1020A0003C20012300E0022318462037BD4680BDB6
:1020B000020010000000FFFF80B588B002AFF8609A
:1020C0007A603B600B467B81FB68DB6A7B617B69E6
:1020D000082B06D07B69012B03D07B6913F5803F69
:1020E00008D1FB681B681A68FB681B6842F48072A1
:1020F0001A600BE0FB681B6B122B07D1FB681B6897
:102100001A68FB681B6842F480721A603B6800938F
:102110007B6800224FF00111F86800F04FF8034689
:10212000002B0DD0FB681B681B6803F48073B3F5AC
:10213000807F03D1FB684FF400721A64032335E0FB
:10214000FB681B69B3F5804F08D17B89DBB21A4667
:10215000FB681B6802F0FE021A611BE07B89DB1141
:10216000DBB203F00603DBB263F00F03DAB2FB6805
:102170001B681A613B687A680E49F86800F098F8A5
:102180000346002B01D0012310E07B89DAB2FB6803
:102190001B681A613B687A680749F86800F088F89C
:1021A0000346002B01D0012300E000231846183716
:1021B000BD4680BD080001000200010080B584B06A
:1021C00000AFF860B9603B601346FB7148E03B68C4
:1021D000B3F1FF3F44D0FFF7F5F80246BB69D31ACD
:1021E0003A689A4202D33B68002B39D1BB681B0C7A
:1021F000DBB2012B0DD1FB681B685B69DA43BB685E
:1022000013409BB2002B0CBF01230023DBB21A4604
:102210000CE0FB681B689B69DA43BB6813409BB208
:10222000002B0CBF01230023DBB21A46FB799A4234
:1022300016D1FB6800221A63FB68202283F83D2038
:10224000FB68002283F83E20FB681B6C43F02002F1
:10225000FB681A64FB68002283F83C20012323E01A
:10226000BB681B0CDBB2012B0DD1FB681B685B69E3
:10227000DA43BB6813409BB2002B0CBF0123002341
:10228000DBB21A460CE0FB681B689B69DA43BB684B
:1022900013409BB2002B0CBF01230023DBB21A4674
:1022A000FB799A4293D0002318461037BD4680BD73
:1022B00080B584B000AFF860B9607A603B6071E0CF
:1022C000FB681B685B6903F48063B3F5806F23D1FF
:1022D000FB681B681A68FB681B6842F400721A608E
:1022E000FB681B686FF480625A61FB6800221A6306
:1022F000FB68202283F83D20FB68002283F83E2003
:10230000FB681B6C43F00402FB681A64FB68002244
:1023100083F83C20012367E07B68B3F1FF3F41D0A5
:10232000FFF750F802463B68D31A7A689A4202D304
:102330007B68002B36D1BB681B0CDBB2012B0CD1A8
:10234000FB681B685B69DA43BB6813409BB2002BD8
:1023500014BF01230023DBB20BE0FB681B689B6901
:10236000DA43BB6813409BB2002B14BF0123002348
:10237000DBB2002B16D0FB6800221A63FB68202218
:1023800083F83D20FB68002283F83E20FB681B6C2D
:1023900043F02002FB681A64FB68002283F83C20AB
:1023A000012321E0BB681B0CDBB2012B0CD1FB68C5
:1023B0001B685B69DA43BB6813409BB2002B14BFF8
:1023C00001230023DBB20BE0FB681B689B69DA4347
:1023D000BB6813409BB2002B14BF01230023DBB268
:1023E000002B7FF46DAF002318461037BD4680BD2B
:1023F00080B584B000AFF860B9607A6034E0F86806
:1024000000F086F80346002B01D0012334E0BB68BE
:10241000B3F1FF3F28D0FEF7D5FF02467B68D31A01
:10242000BA689A4202D3BB68002B1DD1FB681B68B7
:102430005B6903F08003802B16D0FB6800221A63CF
:10244000FB68202283F83D20FB68002283F83E20B1
:10245000FB681B6C43F02002FB681A64FB680022D7
:1024600083F83C20012307E0FB681B685B6903F0ED
:102470008003802BC3D1002318461037BD4680BD92
:1024800080B584B000AFF860B9607A6034E0F86875
:1024900000F03EF80346002B01D0012334E0BB6876
:1024A000B3F1FF3F28D0FEF78DFF02467B68D31AB9
:1024B000BA689A4202D3BB68002B1DD1FB681B6827
:1024C0005B6903F00403042B16D0FB6800221A6337
:1024D000FB68202283F83D20FB68002283F83E2021
:1024E000FB681B6C43F02002FB681A64FB68002247
:1024F00083F83C20012307E0FB681B685B6903F05D
:102500000403042BC3D1002318461037BD4680BDF9
:1025100080B483B000AF78607B681B685B6903F4AC
:102520008063B3F5806F1BD17B681B686FF480629A
:102530005A617B6800221A637B68202283F83D2061
:102540007B68002283F83E207B681B6C43F004020A
:102550007B681A647B68002283F83C20012300E03A
:10256000002318460C37BD4680BC704780B586B046
:1025700000AF78607B68002B01D1012372E27B6899
:102580001B6803F00103002B00F08780924B5B680F
:1025900003F00C03042B0CD08F4B5B6803F00C038F
:1025A000082B12D18C4B5B6803F48033B3F5803F6A
:1025B0000BD1894B1B6803F40033002B6CD07B6874
:1025C0005B68002B68D101234CE27B685B68B3F544
:1025D000803F06D1804B1B687F4A43F480331360F1
:1025E0002EE07B685B68002B0CD17B4B1B687A4A22
:1025F00023F480331360784B1B68774A23F48023DD
:1026000013601DE07B685B68B3F5A02F0CD1724BA3
:102610001B68714A43F4802313606F4B1B686E4A3A
:1026200043F4803313600BE06B4B1B686A4A23F45E
:1026300080331360684B1B68674A23F48023136060
:102640007B685B68002B13D0FEF7BCFE386108E0A6
:10265000FEF7B8FE02463B69D31A642B01D9032367
:1026600000E25D4B1B6803F40033002BF0D014E054
:10267000FEF7A8FE386108E0FEF7A4FE02463B69BB
:10268000D31A642B01D90323ECE1534B1B6803F4E9
:102690000033002BF0D100E000BF7B681B6803F023
:1026A0000203002B63D04C4B5B6803F00C03002B40
:1026B0000BD0494B5B6803F00C03082B1CD1464B35
:1026C0005B6803F48033002B16D1434B1B6803F087
:1026D0000203002B05D07B681B69012B01D001236D
:1026E000C0E13D4B1B6823F0F8027B685B69DB00AF
:1026F000394913430B603AE07B681B69002B20D0FB
:10270000364B01221A60FEF75DFE386108E0FEF7E5
:1027100059FE02463B69D31A022B01D90323A1E1DA
:102720002D4B1B6803F00203002BF0D02A4B1B68D3
:1027300023F0F8027B685B69DB00274913430B60D9
:1027400015E0264B00221A60FEF73CFE386108E0D7
:10275000FEF738FE02463B69D31A022B01D9032348
:1027600080E11D4B1B6803F00203002BF0D17B6856
:102770001B6803F00803002B3AD07B689B69002B91
:1027800019D0174B01221A60FEF71CFE386108E0D1
:10279000FEF718FE02463B69D31A022B01D9032328
:1027A00060E10D4B5B6A03F00203002BF0D00120C7
:1027B00000F0BAFA1CE00A4B00221A60FEF702FE93
:1027C00038610FE0FEF7FEFD02463B69D31A022B8B
:1027D00008D9032346E100BF001002400000424236
:1027E00080044242924B5B6A03F00203002BE9D162
:1027F0007B681B6803F00403002B00F0A680002315
:10280000FB758B4BDB6903F08053002B0DD1884B9C
:10281000DB69874A43F08053D361854BDB6903F062
:102820008053BB60BB680123FB75824B1B6803F4BC
:102830008073002B18D17F4B1B687E4A43F4807352
:102840001360FEF7BFFD386108E0FEF7BBFD0246EE
:102850003B69D31A642B01D9032303E1754B1B6831
:1028600003F48073002BF0D07B68DB68012B06D16A
:102870006F4B1B6A6E4A43F0010313622DE07B68C5
:10288000DB68002B0CD16A4B1B6A694A23F00103F9
:102890001362674B1B6A664A23F0040313621CE051
:1028A0007B68DB68052B0CD1614B1B6A604A43F0E7
:1028B000040313625E4B1B6A5D4A43F0010313621B
:1028C0000BE05B4B1B6A5A4A23F001031362584B1F
:1028D0001B6A574A23F0040313627B68DB68002BF2
:1028E00015D0FEF76FFD38610AE0FEF76BFD02467A
:1028F0003B69D31A41F28832934201D90323B1E0F4
:102900004B4B1B6A03F00203002BEED014E0FEF7E2
:1029100059FD38610AE0FEF755FD02463B69D31ABE
:1029200041F28832934201D903239BE0404B1B6A5A
:1029300003F00203002BEED1FB7D012B05D13C4BB4
:10294000DB693B4A23F08053D3617B68DB69002B52
:1029500000F08780364B5B6803F00C03082B61D0D6
:102960007B68DB69022B46D1334B00221A60FEF7ED
:1029700029FD386108E0FEF725FD02463B69D31AC0
:10298000022B01D903236DE0294B1B6803F0007370
:10299000002BF0D17B681B6AB3F5803F08D1244B34
:1029A0005B6823F400327B689B68214913434B60CA
:1029B0001F4B5B6823F474127B68196A7B685B6A3F
:1029C0000B431B4913434B601B4B01221A60FEF75C
:1029D000F9FC386108E0FEF7F5FC02463B69D31AC2
:1029E000022B01D903233DE0114B1B6803F0007358
:1029F000002BF0D035E0104B00221A60FEF7E2FC0D
:102A0000386108E0FEF7DEFC02463B69D31A022B70
:102A100001D9032326E0064B1B6803F00073002B4B
:102A2000F0D11EE07B68DB69012B07D1012319E09F
:102A30000010024000700040600042420B4B5B6897
:102A4000FB60FB6803F480327B681B6A9A4206D104
:102A5000FB6803F470127B685B6A9A4201D0012321
:102A600000E0002318461837BD4680BD0010024024
:102A700080B584B000AF786039607B68002B01D1ED
:102A80000123D0E06A4B1B6803F007033A689A42BF
:102A900010D9674B1B6823F0070265493B68134355
:102AA0000B60634B1B6803F007033A689A4201D03E
:102AB0000123B8E07B681B6803F00203002B20D0E1
:102AC0007B681B6803F00403002B05D0594B5B683F
:102AD000584A43F4E06353607B681B6803F00803C3
:102AE000002B05D0534B5B68524A43F4605353604C
:102AF000504B5B6823F0F0027B689B684D491343A1
:102B00004B607B681B6803F00103002B40D07B689F
:102B10005B68012B07D1474B1B6803F40033002B84
:102B200015D101237FE07B685B68022B07D1414B05
:102B30001B6803F00073002B09D1012373E03D4BA8
:102B40001B6803F00203002B01D101236BE0394B1A
:102B50005B6823F003027B685B68364913434B6074
:102B6000FEF730FCF8600AE0FEF72CFC0246FB683A
:102B7000D31A41F28832934201D9032353E02D4BFB
:102B80005B6803F00C027B685B689B009A42EBD1A8
:102B9000274B1B6803F007033A689A4210D2244B74
:102BA0001B6823F0070222493B6813430B60204B4C
:102BB0001B6803F007033A689A4201D0012332E010
:102BC0007B681B6803F00403002B08D0194B5B687B
:102BD00023F4E0627B68DB68164913434B607B6833
:102BE0001B6803F00803002B09D0124B5B6823F429
:102BF00060527B681B69DB000E4913434B6000F099
:102C000021F802460B4B5B681B0903F00F030A49CE
:102C1000CB5C22FA03F3094A1360094B1B68184680
:102C2000FEF78EFB002318461037BD4680BD00BF5F
:102C300000200240001002401C70000854000020D8
:102C40005800002080B487B000AF0023FB60002351
:102C5000BB6000237B6100237B6000233B611E4B34
:102C60005B68FB60FB6803F00C03042B02D0082BAD
:102C700003D027E0194B3B6127E0FB689B0C03F076
:102C80000F03174AD35C7B60FB6803F48033002B8F
:102C900010D0114B5B685B0C03F00103114AD35C4D
:102CA000BB607B680D4A03FB02F2BB68B2FBF3F327
:102CB0007B6104E07B680C4A02FB03F37B617B6968
:102CC0003B6102E0054B3B6100BF3B6918461C3786
:102CD000BD4680BC704700BF0010024000127A0061
:102CE000347000084470000800093D0080B400AF53
:102CF000024B1B681846BD4680BC7047540000203C
:102D000080B500AFFFF7F2FF0246054B5B681B0A78
:102D100003F007030349CB5C22FA03F3184680BD96
:102D2000001002402C70000880B485B000AF7860BD
:102D30000A4B1B680A4AA2FB03235B0A7A6802FB60
:102D400003F3FB6000BFFB685A1EFA60002BF9D149
:102D500000BF00BF1437BD4680BC70475400002040
:102D6000D34D621080B483B000AF78607B6803F10C
:102D700008027B685A607B684FF0FF329A607B687C
:102D800003F108027B68DA607B6803F108027B6864
:102D90001A617B6800221A6000BF0C37BD4680BCF8
:102DA000704780B483B000AF78607B6800221A61FE
:102DB00000BF0C37BD4680BC704780B485B000AF03
:102DC000786039607B685B68FB603B68FA685A60D2
:102DD000FB689A683B689A60FB689B683A685A602F
:102DE000FB683A689A603B687A681A617B681B687E
:102DF0005A1C7B681A6000BF1437BD4680BC704700
:102E000080B485B000AF786039603B681B68BB60F8
:102E1000BB68B3F1FF3F03D17B681B69FB600CE02B
:102E20007B680833FB6002E0FB685B68FB60FB6863
:102E30005B681B68BA689A42F6D2FB685A683B68BE
:102E40005A603B685B683A689A603B68FA689A60C7
:102E5000FB683A685A603B687A681A617B681B684D
:102E60005A1C7B681A6000BF1437BD4680BC70478F
:102E700080B485B000AF78607B681B69FB607B68BD
:102E80005B687A6892689A607B689B687A68526827
:102E90005A60FB685B687A689A4203D17B689A68DB
:102EA000FB685A607B6800221A61FB681B685A1E27
:102EB000FB681A60FB681B6818461437BD4680BC67
:102EC0007047000080B584B000AF786039607B68DF
:102ED000FB60FB68002B0BD14FF0500383F311888C
:102EE000BFF36F8FBFF34F8FBB6000BF00BFFDE725
:102EF00002F044FBFB681A68FB68DB6BF968096C3D
:102F000001FB03F31A44FB689A60FB6800229A6392
:102F1000FB681A68FB685A60FB681A68FB68DB6B21
:102F2000013BF968096C01FB03F31A44FB68DA60A2
:102F3000FB68FF2283F84420FB68FF2283F84520CA
:102F40003B68002B14D1FB681B69002B1AD0FB686F
:102F50001033184601F0AAF90346002B12D00D4B8E
:102F60004FF080521A60BFF34F8FBFF36F8F09E0AD
:102F7000FB6810331846FFF7F5FEFB68243318464C
:102F8000FFF7F0FE02F02AFB012318461037BD467A
:102F900080BD00BF04ED00E080B58AB002AFF860EC
:102FA000B9601346FB71FB68002B0BD14FF0500347
:102FB00083F31188BFF36F8FBFF34F8F3B6100BF67
:102FC00000BFFDE7FB68BA6802FB03F3FB61FB6926
:102FD0004833184602F0D4FBB861BB69002B0DD012
:102FE000BB697B617B6948337B61FA79BB6900937C
:102FF00013467A69B968F86800F005F8BB691846A5
:103000002037BD4680BD80B584B000AFF860B960A0
:103010007A60FB70BB68002B03D1BB69BA691A6088
:1030200002E0BB697A681A60BB69FA68DA63BB6957
:10303000BA681A640121B869FFF744FF00BF10376E
:10304000BD4680BD80B582B000AF78607B68002B44
:103050000ED07B6800229A607B6800221A607B6831
:103060000022DA60002300220021786800F052F884
:1030700000BF0837BD4680BD80B586B000AF0346AF
:10308000FB7101237B6100233B61FB791A4639699F
:103090007869FFF781FFF860F868FFF7D3FFFB68F6
:1030A00018461837BD4680BD80B586B000AF786041
:1030B00039607B68002B0BD14FF0500383F31188EC
:1030C000BFF36F8FBFF34F8F3B6100BF00BFFDE7C2
:1030D0003A687B689A420BD94FF0500383F311880A
:1030E000BFF36F8FBFF34F8FFB6000BF00BFFDE7E3
:1030F000022200217868FFF74FFF78617B69002B7F
:1031000002D07B693A689A637B6918461837BD46D6
:1031100080BD000080B58EB000AFF860B9607A6005
:103120003B6000237B63FB683B633B6B002B0BD155
:103130004FF0500383F31188BFF36F8FBFF34F8FAE
:10314000BB6200BF00BFFDE7BB68002B03D13B6B38
:103150001B6C002B01D1012300E00023002B0BD1BD
:103160004FF0500383F31188BFF36F8FBFF34F8F7E
:103170007B6200BF00BFFDE73B68022B03D13B6BC6
:10318000DB6B012B01D1012300E00023002B0BD1CD
:103190004FF0500383F31188BFF36F8FBFF34F8F4E
:1031A0003B6200BF00BFFDE701F020FA0346002BA1
:1031B00002D17B68002B01D1012300E00023002B0A
:1031C0000BD14FF0500383F31188BFF36F8FBFF320
:1031D0004F8FFB6100BF00BFFDE702F0CFF93B6BF3
:1031E0009A6B3B6BDB6B9A4202D33B68022B29D173
:1031F0003A68B968386B00F036FBF8623B6B5B6A83
:10320000002B10D03B6B2433184601F04FF80346D7
:10321000002B13D03F4B4FF080521A60BFF34F8FFB
:10322000BFF36F8F0AE0FB6A002B07D0394B4FF0DA
:1032300080521A60BFF34F8FBFF36F8F02F0CEF949
:10324000012363E07B68002B03D102F0C7F9002360
:103250005CE07B6B002B06D107F11403184601F0EC
:1032600089F801237B6302F0B9F900F0EBFD02F06D
:1032700085F93B6B93F844305BB2B3F1FF3F03D168
:103280003B6B002283F844203B6B93F845305BB2E4
:10329000B3F1FF3F03D13B6B002283F8452002F0DE
:1032A0009DF93A1D07F114031146184601F078F80C
:1032B0000346002B24D1386B00F0CDFB0346002BD6
:1032C00018D03B6B10337A681146184600F09CFF0B
:1032D000386B00F058FB00F0C3FD0346002B7FF471
:1032E0007CAF0C4B4FF080521A60BFF34F8FBFF38F
:1032F0006F8F72E7386B00F046FB00F0B1FD6CE7B2
:10330000386B00F040FB00F0ABFD00231846383767
:10331000BD4680BD04ED00E080B590B000AFF86020
:10332000B9607A603B60FB68BB63BB6B002B0BD161
:103330004FF0500383F31188BFF36F8FBFF34F8FAC
:10334000BB6200BF00BFFDE7BB68002B03D1BB6BB6
:103350001B6C002B01D1012300E00023002B0BD1BB
:103360004FF0500383F31188BFF36F8FBFF34F8F7C
:103370007B6200BF00BFFDE73B68022B03D1BB6B44
:10338000DB6B012B01D1012300E00023002B0BD1CB
:103390004FF0500383F31188BFF36F8FBFF34F8F4C
:1033A0003B6200BF00BFFDE702F0AAF9EFF3118214
:1033B0004FF0500383F31188BFF36F8FBFF34F8F2C
:1033C000FA61BB61FB697B63BB6B9A6BBB6BDB6BAD
:1033D0009A4202D33B68022B2FD1BB6B93F8453046
:1033E00087F83330BB6B9B6BFB623A68B968B86B8C
:1033F00000F039FA97F93330B3F1FF3F12D1BB6BCC
:103400005B6A002B16D0BB6B2433184600F04EFFCE
:103410000346002B0ED07B68002B0BD07B6801226B
:103420001A6007E097F833300133DBB25AB2BB6B56
:1034300083F845200123FB6301E00023FB637B6BE2
:103440007B617B6983F3118800BFFB6B18464037B3
:10345000BD4680BD80B58CB000AFF860B9607A60C1
:103460000023FB62FB68BB62BB6A002B0BD14FF0F1
:10347000500383F31188BFF36F8FBFF34F8F3B620D
:1034800000BF00BFFDE7BB68002B03D1BB6A1B6C0C
:10349000002B01D1012300E00023002B0BD14FF0C2
:1034A000500383F31188BFF36F8FBFF34F8FFB611E
:1034B00000BF00BFFDE701F099F80346002B02D1E1
:1034C0007B68002B01D1012300E00023002B0BD1EE
:1034D0004FF0500383F31188BFF36F8FBFF34F8F0B
:1034E000BB6100BF00BFFDE702F048F8BB6A9B6B01
:1034F0007B627B6A002B1FD0B968B86A00F01DFAA6
:103500007B6A5A1EBB6A9A63BB6A1B69002B0FD089
:10351000BB6A1033184600F0C9FE0346002B07D0E3
:103520003C4B4FF080521A60BFF34F8FBFF36F8F49
:1035300002F054F8012369E07B68002B03D102F00C
:103540004DF8002362E0FB6A002B06D107F110035F
:10355000184600F00FFF0123FB6202F03FF800F075
:1035600071FC02F00BF8BB6A93F844305BB2B3F124
:10357000FF3F03D1BB6A002283F84420BB6A93F863
:1035800045305BB2B3F1FF3F03D1BB6A002283F841
:10359000452002F023F83A1D07F1100311461846A2
:1035A00000F0FEFE0346002B23D1B86A00F03DFA7E
:1035B0000346002B17D0BB6A24337A68114618469D
:1035C00000F022FEB86A00F0DEF900F049FC034684
:1035D000002B89D10F4B4FF080521A60BFF34F8FF1
:1035E000BFF36F8F80E7B86A00F0CDF900F038FCC8
:1035F0007AE7B86A00F0C7F900F032FCB86A00F068
:1036000014FA0346002B3FF46FAF002318463037FF
:10361000BD4680BD04ED00E080B58EB000AF78609F
:10362000396000237B637B68FB6200233B63FB6A9A
:10363000002B0BD14FF0500383F31188BFF36F8F32
:10364000BFF34F8F3B6200BF00BFFDE7FB6A1B6CFF
:10365000002B0BD04FF0500383F31188BFF36F8F13
:10366000BFF34F8FFB6100BF00BFFDE700F0BEFF5F
:103670000346002B02D13B68002B01D1012300E05F
:103680000023002B0BD14FF0500383F31188BFF3BD
:103690006F8FBFF34F8FBB6100BF00BFFDE701F02D
:1036A0006DFFFB6A9B6BBB62BB6A002B24D0BB6ABD
:1036B0005A1EFB6A9A63FB6A1B68002B04D101F057
:1036C00041F90246FB6A9A60FB6A1B69002B0FD026
:1036D000FB6A1033184600F0E9FD0346002B07D0C3
:1036E000544B4FF080521A60BFF34F8FBFF36F8F70
:1036F00001F074FF012398E03B68002B12D13B6B73
:10370000002B0BD04FF0500383F31188BFF36F8F62
:10371000BFF34F8F7B6100BF00BFFDE701F05EFF8D
:10372000002382E07B6B002B06D107F10C031846C7
:1037300000F020FE01237B6301F050FF00F082FBCC
:1037400001F01CFFFB6A93F844305BB2B3F1FF3F1A
:1037500003D1FB6A002283F84420FB6A93F84530CA
:103760005BB2B3F1FF3F03D1FB6A002283F845202F
:1037700001F034FF3A4607F10C031146184600F0F9
:103780000FFE0346002B32D1F86A00F04EF90346D3
:10379000002B26D0FB6A1B68002B09D101F0EEFE3E
:1037A000FB6A9B68184600F03FFF386301F016FF84
:1037B000FB6A24333A681146184600F025FDF86A82
:1037C00000F0E1F800F04CFB0346002B7FF467AFFC
:1037D000184B4FF080521A60BFF34F8FBFF36F8FBB
:1037E0005DE7F86A00F0CFF800F03AFB57E7F86AB7
:1037F00000F0C9F800F034FBF86A00F016F903464F
:10380000002B3FF44CAF3B6B002B0DD001F0B6FE0C
:10381000F86A00F011F87862FB6A9B68796A1846CA
:1038200001F000F801F0DAFE002318463837BD46F3
:1038300080BD00BF04ED00E080B485B000AF7860CB
:103840007B685B6A002B06D07B681B6B1B68C3F12F
:103850000703FB6001E00023FB60FB681846143798
:10386000BD4680BC704780B586B000AFF860B960D7
:103870007A6000237B61FB689B6B3B61FB681B6C80
:10388000002B0DD1FB681B68002B4DD1FB689B689A
:10389000184600F03FFF7861FB6800229A6043E021
:1038A0007B68002B19D1FB685868FB681B6C1A46B3
:1038B000B96802F05EFBFB685A68FB681B6C1A442F
:1038C000FB685A60FB685A68FB689B689A422BD376
:1038D000FB681A68FB685A6026E0FB68D868FB68DA
:1038E0001B6C1A46B96802F044FBFB68DA68FB6897
:1038F0001B6C5B421A44FB68DA60FB68DA68FB68A1
:103900001B689A4207D2FB689A68FB681B6C5B4293
:103910001A44FB68DA607B68022B05D13B69002BF7
:1039200002D03B69013B3B613B695A1CFB689A63CF
:103930007B6918461837BD4680BD80B582B000AFA0
:10394000786039607B681B6C002B18D07B68DA6864
:103950007B681B6C1A447B68DA607B68DA687B687A
:103960009B689A4203D37B681A687B68DA607B683D
:10397000D9687B681B6C1A46386802F0FAFA00BFF7
:103980000837BD4680BD80B584B000AF786001F0D7
:10399000F5FD7B6893F84530FB7311E07B685B6A4B
:1039A000002B12D07B682433184600F07FFC0346BE
:1039B000002B01D000F058FDFB7B013BDBB2FB7319
:1039C00097F90F30002BE9DC00E000BF7B68FF2295
:1039D00083F8452001F002FE01F0D0FD7B6893F8EA
:1039E0004430BB7311E07B681B69002B12D07B68ED
:1039F0001033184600F05AFC0346002B01D000F0AB
:103A000033FDBB7B013BDBB2BB7397F90E30002B60
:103A1000E9DC00E000BF7B68FF2283F8442001F06E
:103A2000DDFD00BF1037BD4680BD80B584B000AF5E
:103A3000786001F0A3FD7B689B6B002B02D1012312
:103A4000FB6001E00023FB6001F0C8FDFB68184645
:103A50001037BD4680BD80B584B000AF786001F0FE
:103A60008DFD7B689A6B7B68DB6B9A4202D10123E8
:103A7000FB6001E00023FB6001F0B0FDFB6818462D
:103A80001037BD4680BD000080B485B000AF7860BF
:103A900039600023FB6014E00E4AFB6852F83330B3
:103AA000002B0BD10B49FB683A6841F83320094AD7
:103AB000FB68DB0013447A685A6006E0FB68013358
:103AC000FB60FB68072BE7D900BF00BF1437BD467A
:103AD00080BC70479C01002080B586B000AFF860C4
:103AE000B9607A60FB687B6101F048FD7B6993F8FF
:103AF00044305BB2B3F1FF3F03D17B69002283F80E
:103B000044207B6993F845305BB2B3F1FF3F03D1AA
:103B10007B69002283F8452001F060FD7B699B6B87
:103B2000002B06D17B6924337A68B968184600F007
:103B300091FB7869FFF727FF00BF1837BD4680BDAE
:103B400080B58CB004AFF860B9603B601346FB8071
:103B5000FB889B00184601F013FE78617B69002BFF
:103B60000ED0542001F00CFEF861FB69002B03D04D
:103B7000FB697A691A6305E0786901F0CFFE01E01C
:103B80000023FB61FB69002B13D0FA880023039309
:103B9000FB690293FB6A0193BB6A00933B68B968B7
:103BA000F86800F00EF8F86900F094F80123BB61A2
:103BB00002E04FF0FF33BB61BB6918462037BD46BA
:103BC00080BD80B588B000AFF860B9607A603B60B6
:103BD0003B6B1A6B7B6803F18043013B9B001344F2
:103BE000BB61BB6923F00703BB61BB6903F007033B
:103BF000002B0BD04FF0500383F31188BFF36F8F6E
:103C0000BFF34F8F7B6100BF00BFFDE7BB68002B98
:103C10001FD00023FB6112E0BA68FB6913441978D6
:103C20003A6BFB69134434330A461A70BA68FB696D
:103C300013441B78002B06D0FB690133FB61FB6941
:103C40000F2BE9D900E000BF3B6B002283F8432033
:103C500003E03B6B002283F83420BB6A062B01D9BA
:103C60000623BB623B6BBA6ADA623B6BBA6A5A6480
:103C70003B6B00229A643B6B04331846FFF791F8C4
:103C80003B6B18331846FFF78CF83B6B3A6B1A61A5
:103C9000BB6AC3F107023B6B9A613B6B3A6B5A629A
:103CA0003B6B0022DA643B6B002283F850203A68B9
:103CB000F968B86901F070FB02463B6B1A60FB6A59
:103CC000002B02D0FB6A3A6B1A6000BF2037BD465A
:103CD00080BD000080B582B000AF786001F04EFC7E
:103CE0002A4B1B680133294A1360294B1B68002BA0
:103CF00009D1274A7B681360244B1B68012B10D124
:103D000000F0D6FB0DE0234B1B68002B09D1204BA4
:103D10001B68DA6A7B68DB6A9A4202D81C4A7B68B5
:103D200013601D4B1B6801331B4A13607B68DB6A01
:103D300001229A40194B1B681343184A13607B6891
:103D4000DA6A13469B0013449B00154A1A447B68A9
:103D5000043319461046FFF730F801F03FFC0D4BD5
:103D60001B68002B0ED00A4B1B68DA6A7B68DB6A83
:103D70009A4207D20B4B4FF080521A60BFF34F8F1D
:103D8000BFF36F8F00BF0837BD4680BDDC02002047
:103D9000DC010020E8020020F8020020E4020020FC
:103DA000E001002004ED00E080B586B002AF1F4BBB
:103DB000019300230093002380221D491D48FFF733
:103DC000BFFEF860FB68012B02D100F06DFFF860C8
:103DD000FB68012B16D14FF0500383F31188BFF31A
:103DE0006F8FBFF34F8FBB6000BF134B4FF0FF329D
:103DF0001A60124B01221A60114B00221A6001F066
:103E00004BFB0FE0FB68B3F1FF3F0BD14FF05003CA
:103E100083F31188BFF36F8FBFF34F8F7B6000BFB9
:103E200000BFFDE700BF1037BD4680BD0003002086
:103E30000470000881440008FC020020E802002011
:103E4000E002002080B400AF044B1B680133034A3A
:103E5000136000BFBD4680BC704700BF0403002054
:103E600080B584B000AF0023FB600023BB60424BF1
:103E70001B68002B0BD14FF0500383F31188BFF365
:103E80006F8FBFF34F8F3B6000BF00BFFDE701F0B6
:103E900075FB394B1B68013B374A1360364B1B6877
:103EA000002B61D1354B1B68002B5DD02EE0344BCD
:103EB000DB68DB68FB60FB6818331846FEF7D8FF49
:103EC000FB6804331846FEF7D3FFFB68DB6A012268
:103ED0009A402C4B1B6813432A4A1360FB68DA6A2A
:103EE00013469B0013449B00274A1A44FB68043383
:103EF00019461046FEF761FFFB68DA6A234B1B6820
:103F0000DB6A9A4202D3224B01221A601C4B1B68C7
:103F1000002BCCD1FB68002B01D000F047FB1D4BE0
:103F20001B687B607B68002B10D000F057F80346BD
:103F3000002B02D0164B01221A607B68013B7B608C
:103F40007B68002BF1D1134B00221A60104B1B68C9
:103F5000002B09D00123BB600F4B4FF080521A6039
:103F6000BFF34F8FBFF36F8F01F038FBBB6818466C
:103F70001037BD4680BD00BF04030020DC020020D6
:103F80009C020020E4020020E0010020DC0100206F
:103F9000F0020020EC02002004ED00E080B483B0C9
:103FA00000AF044B1B687B607B6818460C37BD462E
:103FB00080BC7047E002002080B582B000AF01F005
:103FC0009FFB00237B60044B1B683B603B681846EB
:103FD0000837BD4680BD00BFE002002080B586B036
:103FE00000AF00237B614F4B1B68002B40F08F809C
:103FF0004D4B1B6801333B614B4A3B6913603B6986
:10400000002B21D1494B1B681B68002B0BD04FF0B4
:10401000500383F31188BFF36F8FBFF34F8F3B6063
:1040200000BF00BFFDE7414B1B68FB60404B1B68B6
:104030003E4A13603E4AFB6813603E4B1B680133E7
:104040003C4A136000F0B2FA3B4B1B683A699A4253
:1040500048D3364B1B681B68002B04D1364B4FF0FE
:10406000FF321A603EE0314B1B68DB68DB68BB60E7
:10407000BB685B687B603A697B689A4203D22E4AD0
:104080007B6813602EE0BB6804331846FEF7F0FE31
:10409000BB689B6A002B04D0BB6818331846FEF738
:1040A000E7FEBB68DB6A01229A40244B1B6813437E
:1040B000224A1360BB68DA6A13469B0013449B00D4
:1040C0001F4A1A44BB68043319461046FEF775FEB2
:1040D000BB68DA6A1B4B1B68DB6A9A42B9D30123BF
:1040E0007B61B6E7174B1B68DA6A154913469B00DC
:1040F00013449B000B441B68012B01D901237B61F6
:10410000114B1B68002B07D001237B6104E00F4B90
:104110001B6801330D4A13607B6918461837BD468A
:1041200080BD00BF04030020E002002094020020B4
:1041300098020020F4020020FC020020E40200208B
:10414000E0010020DC010020F0020020EC02002051
:1041500080B487B000AF274B1B68002B03D0264BE1
:1041600001221A6040E0244B00221A60234B1B6896
:10417000FB60FB68B3FA83F3FB72FB7AC3F11F03A6
:104180007B611F497A6913469B0013449B000B44D3
:104190001B68002B0BD14FF0500383F31188BFF342
:1041A0006F8FBFF34F8F7B6000BF00BFFDE77A6961
:1041B00013469B0013449B00114A13443B613B6927
:1041C0005B685A683B695A603B695A683B690833C7
:1041D0009A4204D13B695B685A683B695A603B6903
:1041E0005B68DB68074A136000BF1C37BD4680BCB4
:1041F000704700BF04030020F0020020E40200200A
:10420000E0010020DC01002080B584B000AF7860C0
:1042100039607B68002B0BD14FF0500383F311887A
:10422000BFF36F8FBFF34F8FFB6000BF00BFFDE791
:10423000074B1B68183319467868FEF7E1FD01212A
:10424000386800F0CBFC00BF1037BD4680BD00BF12
:10425000DC01002080B586B000AFF860B9607A60FC
:10426000FB68002B0BD14FF0500383F31188BFF391
:104270006F8FBFF34F8F7B6100BF00BFFDE70A4B1D
:104280001B6818331946F868FEF797FD7B68002B0A
:1042900002D04FF0FF33BB607968B86800F09EFC35
:1042A00000BF1837BD4680BDDC01002080B586B058
:1042B00000AF78607B68DB68DB683B613B69002BA3
:1042C0000BD14FF0500383F31188BFF36F8FBFF30F
:1042D0004F8FFB6000BF00BFFDE73B6918331846F6
:1042E000FEF7C6FD1D4B1B68002B1CD13B69043338
:1042F0001846FEF7BDFD3B69DB6A01229A40184B68
:104300001B681343164A13603B69DA6A13469B0025
:1043100013449B00134A1A443B6904331946104660
:10432000FEF74BFD05E03B69183319460E48FEF7D2
:1043300044FD3B69DA6A0D4B1B68DB6A9A4205D97A
:1043400001237B610A4B01221A6001E000237B619B
:104350007B6918461837BD4680BD00BF04030020A6
:10436000E4020020E00100209C020020DC0100208B
:10437000F002002080B483B000AF7860064B1A686A
:104380007B681A60054B1A687B685A6000BF0C375F
:10439000BD4680BC704700BFF4020020E002002050
:1043A00080B588B000AF786039607B68002B0BD196
:1043B0004FF0500383F31188BFF36F8FBFF34F8F1C
:1043C0003B6100BF00BFFDE73B68002B0BD14FF006
:1043D000500383F31188BFF36F8FBFF34F8FFB60E0
:1043E00000BF00BFFDE701F0C9F81D4B1B68BB61B2
:1043F0007B685B68BA69D31A7B613B681B68B3F161
:10440000FF3F02D10023FB6123E07B681A68154B54
:104410001B689A4207D07B685B68BA699A4202D3EC
:104420000123FB6115E03B681B687A699A420BD255
:104430003B681A687B69D21A3B681A607868FFF794
:1044400099FF0023FB6104E03B6800221A6001230E
:10445000FB6101F0C3F8FB6918462037BD4680BDFB
:10446000E0020020F402002080B400AF034B0122E0
:104470001A6000BFBD4680BC704700BFF00200203C
:1044800080B582B000AF786000F052F8064B1B6830
:10449000012BF9D9054B4FF080521A60BFF34F8FB3
:1044A000BFF36F8FF0E700BFE001002004ED00E0F4
:1044B00080B582B000AF00237B600CE07A681346C1
:1044C0009B0013449B00124A13441846FEF74AFC13
:1044D0007B6801337B607B68062BEFD90D48FEF7C4
:1044E00041FC0D48FEF73EFC0C48FEF73BFC0C4837
:1044F000FEF738FC0B48FEF735FC0B4B054A1A60FB
:104500000A4B054A1A6000BF0837BD4680BD00BF90
:10451000E00100206C020020800200209C020020AC
:10452000B0020020C802002094020020980200205F
:1045300080B582B000AF19E001F020F8104BDB68C5
:10454000DB687B607B6804331846FEF791FC0D4BFB
:104550001B68013B0B4A13600B4B1B68013B0A4A6B
:10456000136001F03BF8786800F010F8064B1B6808
:10457000002BE1D100BF00BF0837BD4680BD00BFA2
:10458000B0020020DC020020C402002080B582B00E
:1045900000AF78607B681B6B184601F0BFF9786844
:1045A00001F0BCF900BF0837BD4680BD80B483B0C0
:1045B00000AF0C4B1B681B68002B04D10A4B4FF05B
:1045C000FF321A6008E0074B1B68DB68DB687B6022
:1045D0007B685B68044A136000BF0C37BD4680BC33
:1045E000704700BF94020020FC02002080B483B01A
:1045F00000AF0B4B1B68002B02D101237B6008E04E
:10460000084B1B68002B02D102237B6001E00023D2
:104610007B607B6818460C37BD4680BC704700BF86
:10462000E80200200403002080B584B000AF786069
:104630007B68BB600023FB607B68002B5ED0BB689F
:10464000DA6A314B1B68DB6A9A424ED2BB689B69BF
:10465000002B06DB2C4B1B68DB6AC3F10702BB682F
:104660009A61BB685969BB68DA6A13469B001344B8
:104670009B00264A134499422FD1BB680433184645
:10468000FEF7F6FB0346002B0AD1BB68DB6A01226A
:1046900002FA03F3DA431E4B1B6813401C4A1360F3
:1046A000194B1B68DA6ABB68DA62BB68DB6A0122F5
:1046B0009A40174B1B681343154A1360BB68DA6AAC
:1046C00013469B0013449B00104A1A44BB680433F2
:1046D00019461046FEF771FB04E00B4B1B68DA6AC3
:1046E000BB68DA620123FB6008E0BB685A6C064BCA
:1046F0001B68DB6A9A4201D20123FB60FB68184603
:104700001037BD4680BD00BFDC010020E001002065
:10471000E402002080B586B000AF78607B683B6122
:1047200000237B617B68002B70D03B4B1B683A6990
:104730009A420BD04FF0500383F31188BFF36F8F71
:10474000BFF34F8FFB6000BF00BFFDE73B699B6C71
:10475000002B0BD14FF0500383F31188BFF36F8F01
:10476000BFF34F8FBB6000BF00BFFDE73B699B6C91
:104770005A1E3B699A643B69DA6A3B695B6C9A42F0
:1047800044D03B699B6C002B40D13B6904331846F5
:10479000FEF76EFB0346002B15D13B69DA6A1F4911
:1047A00013469B0013449B000B441B68002B0AD14B
:1047B0003B69DB6A012202FA03F3DA43184B1B68F8
:1047C0001340174A13603B695A6C3B69DA623B69D4
:1047D000DB6AC3F107023B699A613B69DB6A01222C
:1047E0009A400F4B1B6813430D4A13603B69DA6A0A
:1047F00013469B0013449B00084A1A443B69043348
:1048000019461046FEF7D9FA01237B617B691846E9
:104810001837BD4680BD00BFDC010020E00100204C
:10482000E402002080B588B000AF786039607B6812
:10483000BB6101237B617B68002B79D0BB699B6CDA
:10484000002B0BD14FF0500383F31188BFF36F8F10
:10485000BFF34F8FFB6000BF00BFFDE7BB695B6C20
:104860003A689A4202D93B68FB6102E0BB695B6C23
:10487000FB61BB69DB6AFA699A4259D0BB699B6CE0
:104880007A699A4254D12C4B1B68BA699A420BD16F
:104890004FF0500383F31188BFF36F8FBFF34F8F37
:1048A000BB6000BF00BFFDE7BB69DB6A3B61BB6962
:1048B000FA69DA62BB699B69002B04DBFB69C3F10F
:1048C0000702BB699A61BB6959693A6913469B0043
:1048D00013449B00194A1344994229D1BB690433FC
:1048E0001846FEF7C5FA0346002B0AD1BB69DB6AFE
:1048F000012202FA03F3DA43114B1B681340104AFA
:104900001360BB69DB6A01229A400D4B1B6813439D
:104910000B4A1360BB69DA6A13469B0013449B0081
:10492000064A1A44BB69043319461046FEF745FA95
:1049300000BF2037BD4680BDDC010020E001002023
:10494000E402002080B400AF074B1B68002B04D0AA
:10495000054B1B689A6C01329A64034B1B6818461E
:10496000BD4680BC704700BFDC01002080B586B02A
:1049700000AFF860B9607A603B6000F0FFFD264B45
:104980001B6893F85030DBB2022B1AD0224B1B6805
:10499000D96CFA68D2430A40DA641F4B1B680122C3
:1049A00083F850203B68002B0BD00121386800F0C1
:1049B00015F91A4B4FF080521A60BFF34F8FBFF3B7
:1049C0006F8F00F00BFE00F0D9FD7B68002B04D048
:1049D000114B1B68DA6C7B681A600F4B1B6893F8ED
:1049E0005030DBB2022B02D000237B6108E00A4B7F
:1049F0001B68D96CBA68D2430A40DA6401237B6130
:104A0000054B1B68002283F8502000F0E7FD7B690E
:104A100018461837BD4680BDDC01002004ED00E0DB
:104A200080B58EB000AFF860B9603B601346FB7193
:104A300001237B63FB68002B0BD14FF0500383F302
:104A40001188BFF36F8FBFF34F8F7B6200BF00BF32
:104A5000FDE700F055FEFB683B63EFF311824FF07A
:104A6000500383F31188BFF36F8FBFF34F8F3A6208
:104A7000FB613B6AFB623B68002B03D03B6BDA6C4B
:104A80003B681A603B6B93F8503087F82B303B6BD8
:104A9000022283F85020FB79042B29D801A252F876
:104AA00023F000BF134B0008B94A0008C74A0008AA
:104AB000D34A0008DB4A00083B6BDA6CBB681A4338
:104AC0003B6BDA6428E03B6BDB6C5A1C3B6BDA64B3
:104AD00022E03B6BBA68DA641EE097F82B30022BB9
:104AE00003D03B6BBA68DA6416E000237B6313E003
:104AF0003B6BDB6CB3F1FF3F0DD04FF0500383F302
:104B00001188BFF36F8FBFF34F8FBB6100BF00BF32
:104B1000FDE700BF00E000BF97F82B30012B46D126
:104B20003B6B9B6A002B0BD04FF0500383F3118833
:104B3000BFF36F8FBFF34F8F7B6100BF00BFFDE7F7
:104B4000204B1B68002B1CD13B6B04331846FEF72F
:104B50008FF93B6BDB6A01229A401B4B1B681343A6
:104B6000194A13603B6BDA6A13469B0013449B009F
:104B7000164A1A443B6B043319461046FEF71DF9DA
:104B800005E03B6B183319461148FEF716F93B6BED
:104B9000DA6A104B1B68DB6A9A4208D93B6C002B1F
:104BA00002D03B6C01221A600B4B01221A60FB6A97
:104BB0003B613B6983F3118800BF7B6B1846383734
:104BC000BD4680BD04030020E4020020E001002077
:104BD0009C020020DC010020F002002080B584B09F
:104BE00000AF78603960294B1B68FB60284B1B685D
:104BF00004331846FEF73CF90346002B0BD1244B37
:104C00001B68DB6A012202FA03F3DA43214B1B68BB
:104C10001340204A13607B68B3F1FF3F0AD13B6821
:104C2000002B07D01A4B1B68043319461A48FEF7AD
:104C3000C4F826E0FA687B681344BB60144B1B6819
:104C4000BA685A60BA68FB689A4209D2134B1A686C
:104C50000F4B1B68043319461046FEF7D1F810E0DD
:104C60000F4B1A680A4B1B68043319461046FEF7AF
:104C7000C7F80C4B1B68BA689A4202D2094ABB6853
:104C8000136000BF1037BD4680BD00BFE0020020AA
:104C9000DC010020E4020020C8020020980200206D
:104CA00094020020FC02002080B584B002AF0023F3
:104CB0007B6000F03BFB114B1B68002B0AD0104BB4
:104CC000019306230093002380220E490E48FEF72D
:104CD00037FF78607B68002B0BD14FF0500383F3D4
:104CE0001188BFF36F8FBFF34F8F3B6000BF00BFD2
:104CF000FDE77B6818460837BD4680BD38030020B5
:104D00003C0300200C700008014F000880B588B0FB
:104D100002AFF860B9607A603B60282000F030FD97
:104D200078617B69002B0DD07B69002283F82420F9
:104D30007B6901933B6A00933B687A68B968F868BD
:104D400000F005F87B6918461837BD4680BD80B570
:104D500086B000AFF860B9607A603B60BB68002B3A
:104D60000BD14FF0500383F31188BFF36F8FBFF364
:104D70004F8F7B6100BF00BFFDE77B6A002B1ED019
:104D800000F0D4FA7B6AFA681A607B6ABA689A61A2
:104D90007B6A3A68DA617B6A3A6A1A627B6A043330
:104DA0001846FDF7FEFF7B68002B08D07B6A93F85E
:104DB000243043F00403DAB27B6A83F8242000BF76
:104DC0001837BD4680BD000080B58AB000AFF860DE
:104DD000B9607A603B6000237B62FB68002B0BD1DB
:104DE0004FF0500383F31188BFF36F8FBFF34F8FE2
:104DF0003B6200BF00BFFDE7194B1B68002B2AD0A8
:104E0000BB687B617B68BB61FB68FB61BB68052B92
:104E100018DCFFF7EBFB0346022B09D1104B186897
:104E200007F1140100233A6BFEF774F9786212E07F
:104E30000B4B186807F1140100230022FEF76AF9F2
:104E4000786208E0064B186807F1140100233A68FD
:104E5000FEF762FA78627B6A18462837BD4680BD45
:104E60003803002080B588B002AF78603960234BEA
:104E70001B68DB68DB687B617B6904331846FDF7E0
:104E8000F7FF7B6993F8243003F00403002B23D051
:104E90007B699A697B68D1187B683A68786900F009
:104EA000D3F80346002B20D00023009300237A6818
:104EB00000217869FFF788FF38613B69002B14D126
:104EC0004FF0500383F31188BFF36F8FBFF34F8F01
:104ED000FB6000BF00BFFDE77B6993F8243023F03F
:104EE0000103DAB27B6983F824207B691B6A786945
:104EF000984700BF1837BD4680BD00BF3003002073
:104F000080B584B000AF786007F10803184600F060
:104F100059F8F860BB681946F86800F005F800F029
:104F2000D5F800BFF0E7000080B584B000AF78602E
:104F30003960FEF787FF07F10803184600F064F8B0
:104F4000F860BB68002B30D13B68002B0AD17A682F
:104F5000FB689A4206D8FEF783FFF9687868FFF786
:104F600081FF24E03B68002B08D0134B1B681B68B3
:104F7000002B01D1012300E000233B600F4B186898
:104F80007A68FB68D31A3A681946FEF7A5FDFEF762
:104F900067FF0346002B0AD1094B4FF080521A607D
:104FA000BFF34F8FBFF36F8F01E0FEF759FF00BFD4
:104FB0001037BD4680BD00BF3403002038030020F9
:104FC00004ED00E080B485B000AF78600D4B1B6845
:104FD0001B68002B01D1012200E000227B681A60CF
:104FE0007B681B68002B05D1064B1B68DB681B68C0
:104FF000FB6001E00023FB60FB6818461437BD46E8
:1050000080BC70473003002080B584B000AF78606A
:10501000FEF7C4FFF8600B4B1B68FA689A4205D292
:1050200000F01EF97B6801221A6002E07B68002212
:105030001A60044AFB681360FB6818461037BD46C7
:1050400080BD00BF4003002080B586B000AFF8608F
:10505000B9607A603B6000237B61FB68BA685A6084
:10506000FB68FA681A61BA687B689A4212D87A6853
:105070003B68D21AFB689B699A4202D301237B6189
:105080001BE0104B1A68FB68043319461046FDF705
:10509000B7FE12E07A683B689A4206D2BA683B686B
:1050A0009A4202D301237B6107E0074B1A68FB6831
:1050B000043319461046FDF7A3FE7B6918461837DE
:1050C000BD4680BD340300203003002080B58CB085
:1050D00002AFB2E0BB68002BC0F2AF803B697B62DD
:1050E0007B6A5B69002B04D07B6A04331846FDF7AA
:1050F000BFFE3B1D1846FFF787FF3862BB68092BD0
:1051000000F2988001A252F823F000BF3551000848
:105110003551000835510008AB510008BF51000857
:105120000B5200083551000835510008AB510008FA
:10513000BF5100087B6A93F8243043F00103DAB2D0
:105140007B6A83F82420FA687B6A9B69D118FB6824
:105150003A6A786AFFF778FF0346002B6CD07B6AC7
:105160001B6A786A98477B6A93F8243003F004033B
:10517000002B61D0FA687B6A9B691A440023009374
:1051800000230021786AFFF71FFEF861FB69002BFE
:1051900052D14FF0500383F31188BFF36F8FBFF3E9
:1051A0004F8FBB6100BF00BFFDE77B6A93F82430DF
:1051B00023F00103DAB27B6A83F824203DE07B6AA6
:1051C00093F8243043F00103DAB27B6A83F8242099
:1051D000FA687B6A9A617B6A9B69002B0BD14FF05E
:1051E000500383F31188BFF36F8FBFF34F8F7B6141
:1051F00000BF00BFFDE77B6A9A693B6AD1183B6A32
:105200003A6A786AFFF720FF17E07B6A93F8243048
:1052100003F00203002B03D1786A00F07FFB0CE05F
:105220007B6A93F8243023F00103DAB27B6A83F8B7
:10523000242002E000BF00E000BF084B1B6807F11C
:10524000080100221846FEF705F90346002B7FF4FB
:1052500041AF00BF00BF2837BD4680BD38030020E6
:1052600080B588B002AF49E02E4B1B68DB681B6835
:105270003B612C4B1B68DB68DB68FB60FB6804331D
:105280001846FDF7F5FDFB681B6AF8689847FB6850
:1052900093F8243003F00403002B2FD0FB689B69A4
:1052A0003A691344BB60BA683B699A420ED9FB68FD
:1052B000BA685A60FB68FA681A611A4B1A68FB6888
:1052C000043319461046FDF79BFD17E000230093B9
:1052D00000233A690021F868FFF776FD78607B6863
:1052E000002B0BD14FF0500383F31188BFF36F8F66
:1052F000BFF34F8F3B6000BF00BFFDE7094B1B684A
:105300001B68002BB0D1074B1B687B61064B1B68E9
:10531000044A1360044A7B69136000BF1837BD4616
:1053200080BD00BF300300203403002080B500AFF3
:1053300000F024F9124B1B68002B1DD11148FDF71A
:1053400011FD1148FDF70EFD104B0E4A1A60104B6F
:105350000D4A1A6000220C210A20FDF71DFE0346AB
:10536000074A1360064B1B68002B05D0044B1B68D3
:1053700008491846FEF788FB00F030F900BF80BDF1
:1053800038030020080300201C0300203003002005
:10539000340300201470000880B485B000AFF860BA
:1053A000B9607A60FB68043BFB60FB684FF0807279
:1053B0001A60FB68043BFB60BB6823F00102FB68DA
:1053C0001A60FB68043BFB60084AFB681A60FB68D4
:1053D000143BFB607A68FB681A60FB68203BFB604B
:1053E000FB6818461437BD4680BC7047F15300086F
:1053F00080B485B000AF00237B60124B1B68B3F113
:10540000FF3F0BD04FF0500383F31188BFF36F8F32
:10541000BFF34F8FFB6000BF00BFFDE74FF05003AD
:1054200083F31188BFF36F8FBFF34F8FBB6000BF53
:1054300000BF7B68002BFCD000BF00BF1437BD4607
:1054400080BC7047600000200000000000000000E9
:10545000074B19680868B0E8F00F80F30988BFF3BC
:105460006F8F4FF0000080F311884EF00D0E7047E3
:10547000DC01002000BF00BF06480068006880F320
:10548000088862B661B6BFF34F8FBFF36F8F00DF3E
:1054900000BF00BF08ED00E080B584B000AF324B24
:1054A000FB60FB681B78DBB27B60FB68FF221A7035
:1054B000FB681B78DBB2FB70FB78DBB203F05003B8
:1054C000DAB22A4B1A702A4B07221A6009E0284BDD
:1054D0001B68013B264A1360FB78DBB25B00DBB242
:1054E000FB70FB78DBB203F08003802BEFD0204B06
:1054F0001B68C3F10703042B0BD04FF0500383F359
:105500001188BFF36F8FBFF34F8FBB6000BF00BF29
:10551000FDE7174B1B681B02154A1360144B1B68F1
:1055200003F4E063124A13607B68DAB2FB681A7016
:10553000104B1B680F4A43F4700313600D4B1B683C
:105540000C4A43F07043136000F0B8F80A4B002295
:105550001A60FFF791FFFEF7FBFDFFF749FF0023FD
:1055600018461037BD4680BD00E400E0440300202B
:105570004803002020ED00E06000002080B483B0EC
:1055800000AF4FF0500383F31188BFF36F8FBFF369
:105590004F8F7B6000BF0F4B1B6801330D4A1360B8
:1055A0000C4B1B68012B10D10B4B1B68DBB2002B83
:1055B0000BD04FF0500383F31188BFF36F8FBFF30D
:1055C0004F8F3B6000BF00BFFDE700BF0C37BD46FB
:1055D00080BC70476000002004ED00E080B483B020
:1055E00000AF124B1B68002B0BD14FF0500383F31D
:1055F0001188BFF36F8FBFF34F8F7B6000BF00BF79
:10560000FDE70A4B1B68013B084A1360074B1B6808
:10561000002B05D100233B603B6883F3118800BF5A
:1056200000BF0C37BD4680BC704700BF6000002043
:10563000EFF30980BFF36F8F0D4B1A6820E9F00F6D
:1056400010602DE908404FF0500080F31188FEF7FC
:105650007FFD4FF0000080F31188BDE80840196815
:105660000868B0E8F00F80F30988BFF36F8F7047C8
:10567000DC01002000BF00BF80B582B000AF4FF05A
:10568000500383F31188BFF36F8FBFF34F8F7B609D
:1056900000BFFEF7A3FC0346002B03D0064B4FF0E0
:1056A00080521A6000233B603B6883F3118800BF7F
:1056B00000BF0837BD4680BD04ED00E080B400AFF8
:1056C0000A4B00221A600A4B00221A60094B1B6821
:1056D000094AA2FB03239B09084A013B1360034BC1
:1056E00007221A6000BFBD4680BC704710E000E092
:1056F00018E000E054000020D34D621014E000E0F8
:1057000080B485B000AFEFF30583FB60FB680F2B1F
:1057100015D9174AFB6813441B78FB72154B1B788D
:10572000FA7A9A420BD24FF0500383F31188BFF3F9
:105730006F8FBFF34F8F7B6000BF00BFFDE70E4B45
:105740001B6803F4E0620D4B1B689A420BD94FF0C3
:10575000500383F31188BFF36F8FBFF34F8F3B600C
:1057600000BF00BFFDE700BF1437BD4680BC7047D7
:10577000F0E300E0440300200CED00E048030020CB
:1057800080B58AB000AF78600023FB61FEF75AFB5A
:105790005C4B1B68002B01D100F024F95A4B1A68AE
:1057A0007B681340002B40F095807B68002B1ED057
:1057B00008227B6813447B607B6803F00703002B9F
:1057C00015D07B6823F0070308337B607B6803F008
:1057D0000703002B0BD04FF0500383F31188BFF366
:1057E0006F8FBFF34F8F7B6100BF00BFFDE77B680A
:1057F000002B6FD0454B1B687A689A426AD8444B9D
:105800003B62434B1B687B6204E07B6A3B627B6AC2
:105810001B687B627B6A5B687A689A4203D97B6A01
:105820001B68002BF1D1374B1B687A6A9A4251D022
:105830003B6A1B6808221344FB617B6A1A683B6A57
:105840001A607B6A5A687B68D21A08235B009A4206
:1058500020D97A6A7B681344BB61BB6903F00703F4
:10586000002B0BD04FF0500383F31188BFF36F8FE1
:10587000BFF34F8F3B6100BF00BFFDE77B6A5A68F3
:105880007B68D21ABB695A607B6A7A685A60B869C9
:1058900000F00AF91D4B1A687B6A5B68D31A1B4A31
:1058A00013601A4B1A681B4B1B689A4203D2174BA2
:1058B0001B68184A13607B6A5A68134B1B681A43AB
:1058C0007B6A5A607B6A00221A60134B1B680133A3
:1058D000114A1360FEF7C4FAFB6903F00703002BBB
:1058E0000BD04FF0500383F31188BFF36F8FBFF3DA
:1058F0004F8FFB6000BF00BFFDE7FB6918462837EC
:10590000BD4680BD542B0020682B0020582B002062
:105910004C2B00205C2B0020602B002080B586B033
:1059200000AF78607B687B617B68002B4FD00823D9
:105930005B427A6913447B617B693B613B695A68CE
:10594000254B1B681340002B0BD14FF0500383F302
:105950001188BFF36F8FBFF34F8FFB6000BF00BF95
:10596000FDE73B691B68002B0BD04FF0500383F31E
:105970001188BFF36F8FBFF34F8FBB6000BF00BFB5
:10598000FDE73B695A68144B1B681340002B1ED07F
:105990003B691B68002B1AD13B695A680E4B1B6888
:1059A000DB431A403B695A60FEF74CFA3B695A6880
:1059B0000A4B1B681344094A1360386900F074F8F5
:1059C000074B1B680133064A1360FEF749FA00BF14
:1059D0001837BD4680BD00BF682B0020582B002023
:1059E000642B002080B485B000AF4FF42053BB601F
:1059F000274BFB60FB6803F00703002B0CD0FB6810
:105A00000733FB60FB6823F00703FB60BA68FB68A1
:105A1000D31A1F4A1344BB60FB687B601D4A7B6836
:105A200013601C4B00225A607B68BA681344FB6009
:105A30000822FB689B1AFB60FB6823F00703FB60EE
:105A4000FB68154A1360144B1B6800225A60124B06
:105A50001B6800221A607B683B603B68FA68D21AB8
:105A60003B685A600C4B1A683B681A603B685B687D
:105A70000A4A13603B685B68094A1360094B4FF0A0
:105A800000421A6000BF1437BD4680BC704700BF9B
:105A90004C0300204C2B0020542B00205C2B0020BA
:105AA000582B0020682B002080B485B000AF7860B0
:105AB000274BFB6002E0FB681B68FB60FB681B6810
:105AC0007A689A42F7D8FB68BB60FB685B68BA6883
:105AD00013447A689A4208D1FB685A687B685B680D
